:020000040800F2
:100000003808002029020008E71C0008971B000898
:10001000E51C000859060008F9220008000000004D
:10002000000000000000000000000000EB1C0008C1
:100030001907000800000000E91C0008ED1C00087A
:10004000430200084302000843020008430200087C
:10005000430200084302000843020008430200086C
:10006000430200084302000843020008430200085C
:10007000430200084302000843020008430200084C
:10008000430200084302000843020008430200083C
:10009000430200084302000843020008430200082C
:1000A000430200084302000843020008430200081C
:1000B000430200084302000843020008430200080C
:1000C00043020008430200084302000843020008FC
:1000D00043020008ED220008430200084302000822
:1000E00043020008430200084302000843020008DC
:1000F00043020008430200084302000843020008CC
:1001000043020008430200084302000843020008BB
:100110004302000843020008951D0008430200083E
:1001200043020008430200085D060008430200087D
:10013000430200084302000843020008430200088B
:10014000430200084302000843020008430200087B
:100150004302000843020008690600084302000841
:10016000430200084302000843020008430200085B
:100170004302000843020008430200080000000098
:10018000430200084302000800F002F800F03CF8C7
:100190000AA090E8000C82448344AAF10107DA45E2
:1001A00001D100F031F8AFF2090EBAE80F0013F0F8
:1001B000010F18BFFB1A43F001031847D4220000B7
:1001C000F4220000103A24BF78C878C1FAD8520748
:1001D00024BF30C830C144BF04680C6070470000C1
:1001E0000023002400250026103A28BF78C1FBD840
:1001F000520728BF30C148BF0B6070471FB502F0DF
:1002000031F91FBD10B510BD00F0CFF81146FFF752
:10021000F5FF02F0D9F800F0EDF803B4FFF7F2FFB4
:1002200003BC00F0F5F80000094880470948004782
:10023000FEE7FEE7FEE7FEE7FEE7FEE7FEE7FEE796
:10024000FEE7FEE704480549054A064B70470000F3
:10025000851D0008890100083802002038080020A8
:10026000380400203804002053EA020C00F06980B2
:100270002DE9F04B4FF00006002B1FBFB3FA83F5BA
:1002800003FA05F424FA05F65E4012BF1643B2FAEB
:1002900082F502FA05F4C5F120051EBF22FA05FC1D
:1002A00044EA0C04203556EA044C4FEA144418BFC3
:1002B000641C4FF000084FF00009904271EB030CF2
:1002C00039D3002919BFB1FA81F701FA07F6B0FA5C
:1002D00080F700FA07F6C7F120071EBF20FA07FCD7
:1002E00046EA0C062037B6FBF4FCA7EB0507103FE7
:1002F00007F01F0BCBF120060CFA0BFB2CFA06F6CD
:1003000044BFB3460026202FA4BF5E464FF0000B2B
:100310005BEA060C08BF4FF0010B19EB0B09ABFBB6
:10032000027C48EB0608C01B06FB02CC0BFB03CC8F
:1003300071EB0C01C1E70B46024641464846BDE859
:10034000F08B13B54FF000004FF00001AFF30080C9
:10035000BDE81C4070474FF0000200B513469446BC
:100360009646203922BFA0E80C50A0E80C50B1F10D
:100370002001BFF4F7AF090728BFA0E80C5048BF21
:100380000CC05DF804EB890028BF40F8042B08BFBF
:10039000704748BF20F8022B11F0804F18BF00F8BB
:1003A000012B7047704770477047754600F02CF876
:1003B000AE4605006946534620F00700854618B052
:1003C00020B5FFF73FFFBDE820404FF000064FF09B
:1003D00000074FF000084FF0000B21F00701AC467A
:1003E000ACE8C009ACE8C009ACE8C009ACE8C00999
:1003F0008D46704710B50446AFF300802046BDE837
:100400001040FFF70ABF000000487047D8010020E5
:1004100001491820ABBEFEE726000200704700002D
:1004200010B5032801D3012010BD154A02EBC0040A
:10043000A37933B139B101290CD0022914D002209B
:1004400010BD032010BD52F83000A188002200F03A
:1004500019FD13E052F83000A188012200F012FDCE
:100460000AE0E071002010BDA18852F8300000F0D1
:1004700001FDE079012801D00120F2E70020F0E73A
:10048000100000202DE9F04186B00446032803D374
:10049000012006B0BDE8F08114216846FFF75BFF3C
:1004A000234E244A244956F834000025904207D1AF
:1004B0000A6842F004020A60096801F004011FE0C2
:1004C0001E4A904207D10A6842F002020A60096897
:1004D00001F0020114E01A4A904207D10A6842F082
:1004E00001020A60096801F0010109E0154A904221
:1004F00007D10A6842F008020A60096801F00801A1
:10050000059106EBC4074FF00108B9880091CDE9C9
:1005100001856946039500F0B5FBB98856F83400AB
:10052000002200F0AFFC87F80680FD710020B0E7E4
:100530001000002000080240303802400004024051
:1005400000000240000C0240022805D2054901EBE0
:10055000001118B1012801D0012070470120087155
:10056000002070472C00002010B502280BD2074C49
:1005700004EB0010047934B1006801F0C5F90028DB
:1005800000D0052010BD022010BD00002C0000206E
:1005900010B502280BD2074B03EB0010037933B1DF
:1005A000006801F009FA002800D0052010BD0220E3
:1005B00010BD00002C00002010B502280BD2074B04
:1005C00003EB0010037933B1006801F003FA00284F
:1005D00000D0052010BD022010BD00002C0000201E
:1005E00010B502280BD2074C04EB0010047934B18B
:1005F000006801F010FA002800D0042010BD02208D
:1006000010BD00002C00002010B502280BD2074BB3
:1006100003EB0010037933B1006801F04DFA0028B4
:1006200000D0042010BD022010BD00002C000020CE
:1006300010B502280BD2074B03EB0010037933B13E
:10064000006801F07BFA002800D0042010BD0220D1
:1006500010BD00002C000020FEE70000014800F063
:1006600073B9000018010020014800F06DB90000C6
:100670007801002001681823CAB2103AB2FBF3F2E5
:10068000054B6FF30901032A9B5CC36500D9091D63
:1006900081650846704700006E24000810B50146C9
:1006A00000208B698A6A4FF0C07453B1B3F5005FC4
:1006B00015D072B1012A0CD0022A0AD0032A09D11E
:1006C00004E01AB1012A06D0022A03D1C96AC9017D
:1006D00000D5012010BDC96AA142FAD010BD002A80
:1006E000F7D0012AF2D0022AF3D0032AF3D010BDAA
:1006F00030B50468256825F48025256004686360AA
:100700008368402B036803D099600068C26030BDE5
:100710009A600068C16030BD704772B6FEE77047EE
:1007200070B500B3F9B14379012B1ED00126467193
:100730000223037105682C6802F0100340F6FE7274
:100740009A409443D1E900210A439A4022432A6007
:1007500001680A68C0249C40A2430A600671002117
:100760004171084670BD012070BD022070BD704708
:100770002DE9F041044600680668456BB1044FF06E
:10078000040710D5A9040ED52771216941F0010194
:100790002161F90241632068016821F48051016000
:1007A0002046FFF7E4FFB00014D5A80012D527714A
:1007B000206940F00200206121684FF0005048633A
:1007C0002068016821F0805101602046BDE8F041B9
:1007D000FFF7A5BFBDE8F08170B5040003D0207914
:1007E000002510B105E0012070BD6571204600F0C4
:1007F00007F802202071256101202071002070BDC2
:1008000010B586B0044614216846FFF7A4FD1549CB
:100810002068884224D114480021026842F0005226
:100820000260006800F0005005900F481038026820
:1008300042F001020260006800F001000590102003
:1008400000900320CDE901016946084800F01AFA3A
:1008500000221146362000F089FB362000F078FB9C
:1008600006B010BD00740040403802400000024055
:1008700018B50024009440B100680090104431B1D4
:10088000143000900360002018BD012018BD08300E
:10089000F7E72DE9F0410446876D00F0F9FA0646C6
:1008A00094F835000025022806D08020606584F881
:1008B00034500120BDE8F0812068016821F0160164
:1008C00001602068416921F080014161206C08B914
:1008D000A06C20B12068016821F008010160206847
:1008E000016821F0010101600CE000F0D1FA801BE9
:1008F000052807D920206065032084F8350084F896
:100900003450D7E720680068C007EED194F85C1037
:100910003F208840B860012084F8350084F83450C6
:100920000020C7E790F83510022903D080214165E7
:1009300001207047052180F835100068016821F01A
:1009400001010160002070472DE9F84304464FF093
:100950000009CDF8009063484FF41651A56D00686A
:10096000B0FBF1F72E6894F85C10082000FA01F152
:1009700031420FD021680A6852070BD50A6822F06D
:1009800004020A6094F85C108840A860606D40F032
:100990000100606594F85C104FF0010808FA01F05E
:1009A000304208D021684969090604D5A860606D05
:1009B00040F00200606594F85C10042088403042EA
:1009C00008D021680968890704D5A860606D40F0E7
:1009D0000400606594F85C1010208840304218D004
:1009E00021680968090714D5A860206801684903CF
:1009F00004D50068000308D5A16C07E00168C905AB
:100A000003D4016821F008010160216C09B120467E
:100A1000884794F85C1020208840304231D021680B
:100A20000968C9062DD5A86094F835000528206806
:100A3000016806D0490347D5006800031DD4616CE6
:100A40001CE021F0160101602068416921F080015D
:100A50004161206C08B9A06C20B12068016821F0C8
:100A60000801016094F85C103F208840A86084F879
:100A7000358084F83490216D1FE0E16B09B1204688
:100A80008847606D00282BD0606DC00714D005200A
:100A900084F835002068016821F0010101600098A8
:100AA000401C0090B84203D820680068C007F6D107
:100AB00084F8358084F83490E16C002910D001B0BE
:100AC0002046BDE8F04308470168C905D5D4016850
:100AD00021F01001016084F8358084F83490CCE76F
:100AE000BDE8F8830C0000202DE9F041044600F039
:100AF000CFF906465CB1022084F83500002584F861
:100B000034502068016821F0010101600DE00120EE
:100B1000BDE8F08100F0BCF9801B052805D9202034
:100B20006065032084F83500F2E720680068C0079C
:100B3000F0D12268116820480140D4E9010318432C
:100B4000D4E903363343184363691843A369184350
:100B5000E3691843236A18430843616A042903D1EF
:100B6000D4E90B1319430843106020684069666A92
:100B700020F0070130460E43012704280CD1A06A5B
:100B80000643E06A40B12046FFF788FD20B14020CF
:100B9000606584F83570BAE7206846612046FFF743
:100BA00069FD94F85C203F2191408160656584F87F
:100BB00035700020ACE700003F8010F02DE9F041D7
:100BC0000446866D90F83400002501280DD00120E0
:100BD00084F8340094F835700020012F07D084F891
:100BE000340002252846BDE8F0810220FBE70227F9
:100BF00084F8357060652046FFF77AFD94F85C1044
:100C00003F208840B0602068016841F01601016013
:100C1000206C20B12068016841F008010160206863
:100C2000016841F001010160DCE7000070B5044695
:100C300000F02EF90546601C02D0044800780444F8
:100C400000F026F9401BA042FAD370BD000000203E
:100C500070B54FF0E024002265690949A36909686D
:100C60004843A1699942FCD002D2A3EB010302E000
:100C7000A5EB010633441A440B468242F1D370BD02
:100C8000280000202DE9F84FDFF8BCA10022012543
:100C900003264FF00F090AF1040BAAF1040E00BF5E
:100CA0000B6805FA02F42340A34270D10F7907F0D4
:100CB0000307012F01D0022F16D187684FEA42089F
:100CC00006FA08FC27EA0C07D1F80CC00CFA08FC5D
:100CD0004CEA070CC0F808C04768A7430C79C4F376
:100CE000001494403C4344600C79E443A4070AD0C8
:100CF000C4684FEA420C06FA0CF7BC438F6807FA47
:100D00000CF72743C7600C7904F00304022C12D1BE
:100D1000D40800EB840CDCF820405707FF0E09FADA
:100D200007F824EA0804D1F8108008FA07F848EA1E
:100D30000408CCF8208004684FEA420C06FA0CF74D
:100D4000BC430F7907F0030707FA0CF72743076046
:100D50004C6814F4403F70D03C4C276847F48047FF
:100D60002760246822F0030704F480440094384C80
:100D700007EB040CDCF8084897074FEA177809FAE4
:100D800008F7BC43334FB84202D1002724E054E0B7
:100D9000314FB84201D101271EE0304FB84201D196
:100DA000022719E02E4FB84201D1032714E02D4F3E
:100DB000B84201D104270FE02B4FB84201D10527DB
:100DC0000AE02A4FB84201D1062705E0284FB84271
:100DD00001D1072700E0082707FA08F72743CCF8D6
:100DE0000878DAF800405746D1F804C09C435FEA1F
:100DF000CC2C00D51C433C60DBF800405F46D1F8AA
:100E000004C09C435FEA8C2C00D51C433C60DEF898
:100E100000407746D1F804C09C435FEA8C3C00D583
:100E20001C433C60084F083F3C68D1F804C09C4319
:100E30005FEACC3C00D51C433C60521C102AFFF4F6
:100E40002FAFBDE8F88F0000083C01404438024055
:100E5000003001400000024000040240000802404F
:100E6000000C024000100240001402400018024032
:100E7000001C0240426921EA02030A4043EA02419F
:100E8000816170470AB1816170470904FBE7000086
:100E90000148806870470000000000200248816817
:100EA0000278114481607047000000200B4810B5A3
:100EB000016841F400710160016841F480610160E2
:100EC000016841F480710160032000F06FF80F2089
:100ED00000F006F800F024F8002010BD003C0240AD
:100EE00070B50D4D04464FF47A712878B1FBF0F0DF
:100EF0000A490968B1FBF0F000F00AFB48B9102C70
:100F000007D200222146501E00F030F800206C600D
:100F100070BD012070BD0000000000200C0000200A
:100F20000A4808B5016841F480410160006800F496
:100F3000804000900548001F016841F08051016029
:100F4000006800F08050009008BD00004438024066
:100F5000002809DB00F01F020121914040098000B8
:100F600000F1E020C0F8001170470000F0B40E4B13
:100F70001B680C46C3F30223C3F10705042D00D9F7
:100F80000425191D072901D2002300E0DB1E0126DC
:100F900006FA05F1491E214099409E40761E1640F2
:100FA0003143F0BC01F0A9B90CED00E0064900F0B6
:100FB000070208684FF6FF03184040EA0220034A80
:100FC00010430860704700000CED00E00000FA05D7
:100FD0002DE9F0470E46050065D0DFF81481D8F8FA
:100FE0000000F7B200F00700B04207D288F80070A6
:100FF000D8F8000000F00700B04254D128683D4CFA
:10100000810712D5400703D5206840F4E0502060E6
:101010002878000703D5206840F4604020602068ED
:10102000A96820F0F000084320602878C0072DD080
:10103000304968680839012812D0022813D00328E3
:1010400011D00968890700292DDA216821F00301F0
:1010500001432160FFF71CFF814641F2883A0EE010
:1010600009688903EFE709688901ECE7FFF710FFDA
:10107000A0EB0901514502D90320BDE8F0872068A3
:10108000696800F00C00B0EB810FEFD1D8F80010C8
:10109000404601F00701B14207D90770006800F02F
:1010A0000700B04201D00120E7E72878400705D5C6
:1010B0002068E96820F4E0500843206028780007A1
:1010C00006D52068296920F4604040EAC10020600C
:1010D00000F038F82168084AC1F30311515CC84098
:1010E0000649086006480068FFF7FAFE0020C4E7DA
:1010F000003C024008380240762400080C00002022
:10110000040000200448054900680968044AC1F346
:101110008221515CC84070470C0000200838024012
:10112000862400080448054900680968044AC1F398
:101130004231515CC84070470C0000200838024022
:1011400086240008154810B5006810F00C021448F9
:1011500013D04110042A0FD0082A0ED10F4C241F9F
:101160002268236802F03F025B0207D52068C0F3C3
:101170008810A0FB010106E0084610BD2168C1F3FC
:101180008811A1FB00010023FFF76EF82168C1F36D
:101190000141491C4900B0FBF1F010BD0838024084
:1011A0000024F4002DE9F84F04006ED02078DFF819
:1011B0004C93C007A9F104054AD009F10400016865
:1011C000C1F38101012908D00068C0F38100022821
:1011D0000AD1D9F80000400206D52868800337D527
:1011E00060680028E1D033E06068B0F5803F10D03F
:1011F000B0F5A02F286810D020F48030286028682F
:1012000020F4802028606068A8B1FFF741FE064600
:101210000DE0286840F48030F4E740F48020286036
:10122000F7E700BFFFF734FE801B642873D82868F7
:101230008003F7D50CE0FFF72BFE064605E000BF64
:10124000FFF726FE801B6428F0D828688003F7D4B7
:101250002078DFF8AC8280074FF0000A3ED5A7481F
:10126000001D016811F00C0F08D00068C0F3810068
:1012700002280BD1D9F80000400207D42868800763
:1012800016D5E068012800D112E033E1E068B8B17A
:101290000120C8F80000FFF7FBFD064605E000BF8F
:1012A000FFF7F6FD801B0228C0D828688007F7D515
:1012B0002868216920F0F80040EAC10028600DE0AC
:1012C000C8F800A0FFF7E4FD064604E0FFF7E0FDE4
:1012D000801B02281FD828688007F7D420780007D1
:1012E00022D5864F87486169703771B1012101604D
:1012F000FFF7CEFD064604E0FFF7CAFD801B02287B
:1013000009D838688007F7D50EE0C0F800A0FFF7CD
:10131000BFFD064605E082E0FFF7BAFD801B02280C
:101320007DD838688007F7D42078400768D5DFF883
:10133000CCB100270BF13C0BDBF80000C0000BD454
:10134000DBF8001041F08051CBF80010DBF8000012
:10135000012700F0805000906B4E3068C00510D41B
:10136000306840F480703060FFF792FD009005E037
:10137000FFF78EFD0099401A022850D83068C0054A
:10138000F6D55E4EA0686C3601280FD0052830686F
:1013900010D020F001003060306820F00400306090
:1013A000A068B8B1FFF774FD00900FE0306840F01E
:1013B0000100F4E740F004003060F7E7FFF768FD54
:1013C0000099411A41F28830814266D8306880071E
:1013D000F4D50EE0FFF75CFD009007E0FFF758FD45
:1013E0000099411A41F28830814256D8306880070E
:1013F000F4D42FB1DBF8001021F08051CBF80010AD
:10140000A069C8B33D49091D0968C1F381010229DA
:101410004AD00228504607D0C8F8600000E03CE0FF
:10142000FFF736FD04463BE04746C8F86000FFF78B
:101430002FFD064605E000BFFFF72AFD801B0228AE
:101440002BD828688001F7D4D4E907010843A16AA2
:101450002E4A490802EB0141626A41EA82110843BF
:1014600094F82C1040EA0161C9F800100120386698
:10147000FFF70EFD044606E03EE000BFFFF708FD63
:10148000001B022809D828688001F7D534E000BF86
:10149000FFF7FEFC001B022802D90320BDE8F88FED
:1014A00028688001F4D427E00128F7D0D9F800009B
:1014B000E26900F4800191421CD1226A00F03F01F0
:1014C000914217D147F6C071626A0140B1EB821FA9
:1014D00010D1A26A4FF0FF3300F4403103EB520207
:1014E000B1EB024F06D194F82C1000F07060B0EB15
:1014F000016F01D00120D1E70020CFE7043802407E
:1015000000004742800E4742007000400000FFFF8D
:1015100010B5401EB0F1807F01D3012010BD4FF007
:10152000E02460610F21601700F0E7FE0020A06159
:1015300007202061002010BD70477047F8B5016892
:1015400004460868CA684B6910F00F0F4FF0000599
:1015500059D003F0010602F49077374365D0C107F4
:1015600005D0D10503D5616C41F0010161644107EB
:1015700005D5D90703D0616C41F002016164810790
:1015800005D5D90703D0616C41F0040161640107FE
:1015900007D502F02001314303D0616C41F008010E
:1015A0006164616C00293AD0800604D5900602D5AA
:1015B000204600F0E4FC20684069616CC0F38010B4
:1015C000090700D460B3204600F08EFC2068406913
:1015D000400621D52068143050E8001F21F040015A
:1015E00040E80012002AF5D1E06BA8B1724901650C
:1015F000E06BFFF797F9002811D0E06B016D01B0A7
:10160000BDE8F040084783060FD593060DD5204668
:10161000BDE8F84000F0B3BC2046FFF78EFFF8BDF0
:101620002046FFF78AFF6564F8BD266B2023012E54
:101630007ED1C6067CD5D6067AD508684868009063
:1016400048694FF0020640064DD5E26B10684068CD
:101650004FF480770004000C3AD0A18D814237D935
:10166000E085D069B8422DD020680C3050E8001FCA
:1016700021F4807140E80012002AF5D1206814306E
:1016800050E8001F21F0010140E80012002AF5D1C6
:101690002068143050E8001F21F0400140E800129B
:1016A000002AF5D184F84230256320680C3050E8D8
:1016B000001F21F0100140E80012002AF5D1E06B74
:1016C000FFF7E7F86663A08DE18D401A81B206E06E
:1016D000A18D8142A8D1D069B842A5D166632046C8
:1016E000FFF72AFFF8BDA08DE18D401A81B2E08D91
:1016F0000028F7D00029F5D020680C3050E8002FE2
:1017000022F4907240E80027002FF5D120681430B1
:1017100050E8002F22F0010240E80027002FF5D109
:1017200084F84230256320680C3050E8002F00E038
:1017300006E022F0100240E80023002BF3D1CDE7B1
:1017400005062BD5150629D594F841002128C9D1C5
:10175000A068B0F5805F01D12069B0B1206A411C5A
:101760002162216800784860E08C401E0004000C73
:10177000E084B7D12068C16821F08001C160206891
:10178000C16841F04001C160F8BD206A0088C0F323
:1017900008004860206A801C2062E5E74006F3D517
:1017A0005006F1D5CA68204622F04002CA6084F88B
:1017B000413000F0DDF9F8BDA11D000870B504004E
:1017C00004D094F84100002510B106E0012070BD5E
:1017D00084F84050204600F023F8242084F841008B
:1017E0002068C16821F40051C160204600F054FC1B
:1017F0002068016921F4904101612068416921F06C
:101800002A0141612068C16841F40051C1606564EA
:10181000202084F8410084F842006563002070BDF8
:101820002DE9F04186B0064614216846FEF793FD87
:101830003049306888425AD12F480024016841F06D
:1018400010010160006800F0100005902A4814386B
:10185000016841F0010101600068694600F0010083
:1018600005904FF4C06000900220CDE901040320F0
:101870000390072004902148FFF704FA214D2048E7
:101880004FF000672860C5E901744FF48068C5E92E
:10189000034880156C61C5E906402C6228466C62DD
:1018A000FFF722F908B1FEF738FFF563AE63154D77
:1018B000134860357830E5E802074020A5E81101BB
:1018C000104845F814496030AC61EC612C626C62E0
:1018D000FFF70AF908B1FEF720FFB56300221146B1
:1018E0002520AE63FFF742FB2520FFF731FB06B052
:1018F000BDE8F08100100140443802400000024081
:1019000040640240180100202DE9F84F044690F889
:1019100042009A4616460D46202802D00220BDE815
:10192000F88FB5B1AEB100206064222184F8421076
:101930002063FFF7ADFAA6858146E685A0684FF4DF
:1019400080582027404501D1206920B12E4600252E
:1019500029E00120E3E7002625E04B460022202174
:101960002046CDF800A000F088FC18B184F8427041
:101970000320D4E726B1A06840451AD038B108E06A
:1019800020684068C0F3080025F8020B08E02069D1
:1019900078B12068406800F07F0000BF06F8010BB6
:1019A000E08D401EE085E08D0028D6D184F842709D
:1019B000B5E720684068F1E790F84230202B01D06D
:1019C0000220704721B11AB10023036300F0EABB83
:1019D0000120704790F84230202B01D00220704740
:1019E00021B11AB10023036300F02CBC0120704721
:1019F00070B5074E0546002406EB04100168A942A5
:101A000002D1806800B18047641C022CF4DB70BDF9
:101A10002C00002070472DE9F843044690F841005F
:101A2000984616460D46202802D00220BDE8F883CD
:101A300085B17EB100206064212084F84100FFF769
:101A400027FAA6848146E684A0682027B0F5805F47
:101A500002D003E00120E9E7206910B12E460025FD
:101A60000EE000260CE08021204600F006FCA8B91C
:101A7000C6B116F8010B21684860E08C401EE08476
:101A8000E08C4B464FF00002CDF800800028EAD1F0
:101A90004FF04001204600F0F0FB40B184F8417067
:101AA0000320C3E735F8020BC0F30800E3E784F82E
:101AB00041700020BAE7000070B5044690F841007C
:101AC000202801D0022070BD01B3FAB12162A284A6
:101AD000E28400206064212384F84130A56B144B1C
:101AE000EB63A56B134B2B64A56B134BEB64A36BE0
:101AF000186520681346A56B021D2846FFF75EF89F
:101B000030B110206064202084F84100012070BDB5
:101B100021686FF0400008602068143050E8001F12
:101B200041F0800140E80012002AF5D1002070BD8C
:101B30009D1E0008DF1E0008AF1D000890F8413010
:101B4000202B01D00220704779B172B101628284EA
:101B5000C28400214164212180F841100068C168DD
:101B600041F08001C16000207047012070470000F3
:101B700070B5074E0546002406EB04100168A94223
:101B800002D1C06800B18047641C022CF4DB70BD38
:101B90002C0000207047FEE770B50D46040012D0FF
:101BA000606800280FD0A168691A81420BD32078A1
:101BB0000221FEF735FC6078012801D0012000E009
:101BC00000206070A56070BD70B504000D460AD09D
:101BD0000846FEF757FC002804D1257000216170EB
:101BE0006160A16070BD012070BD002802D041601D
:101BF00000218160704700001CB500240C4900944E
:101C00000A48019408600846FEF7E6FD08B1FEF7B1
:101C100084FD0220CDE90040002269460448FEF719
:101C20007FFD002801D0FEF778FD1CBD0074004048
:101C3000BC0000200D4808B5016841F48001016036
:101C40000068002200F48000009011463A20FFF75F
:101C50008DF93A20FFF77CF9002211464620FFF764
:101C600085F9BDE808404620FFF772B930380240D8
:101C70000D4808B5016841F004010160016801F0F8
:101C800004010091016841F080010160016801F0E8
:101C900080010091016841F001010160006800F0DD
:101CA0000100009008BD0000303802400C4810B51B
:101CB0000A4901604FF4E1314160002181600C224A
:101CC000C160C0E904128161C161FFF777FD00289E
:101CD00003D0BDE81040FEF720BD10BD001001404C
:101CE000D0000020FEE7FEE770477047FFF7D6B848
:101CF00030B593B030216846FEF72DFB14210CA8B7
:101D0000FEF729FB1D480025016841F08051016064
:101D1000006800F0805011901948016841F480413A
:101D200001600068022400F48040119001200090BE
:101D3000000401908001CDE9064008AA0420A821F2
:101D400082E813000B906846FFF72CFA08B172B6D0
:101D5000FEE70CA90F2081E831004FF4A0500F904E
:101D60004FF48050109005210CA8FFF731F900289E
:101D700001D072B6FEE713B030BD0000403802401B
:101D8000007000400248016841F470010160704732
:101D900088ED00E00148FEF7EBBC0000BC0000202D
:101DA00010B5806B0021C185FFF7C7FB10BD70B572
:101DB000846B2068406994F84110C0F3C01000257E
:101DC000212904D118B1E584204600F0B4F8206838
:101DD000406994F84210C0F38010222904D118B150
:101DE000E585204600F080F8606C40F010006064EB
:101DF0002046FFF7A2FB70BD10B50146806B096855
:101E000009684FF00002C9052ED4C28501680C3163
:101E100051E8003F23F4807341E80034002CF5D1F1
:101E20000168143151E8003F23F0010341E8003418
:101E3000002CF5D10168143151E8003F23F0400334
:101E400041E80034002CF5D1202180F84210016BCC
:101E5000012909D101680C3151E8003F23F010033A
:101E600041E80034002CF5D14263016B012902D016
:101E7000FFF7BEFD10BD818DFFF75EFB10BD10B5F5
:101E8000806B01214163016B012902D0FFF7C2FD84
:101E900010BD818D4908FFF74FFB10BD10B50146FD
:101EA000806B09680968C90516D40021C1840168DE
:101EB000143151E8002F22F0800241E80023002B6A
:101EC000F5D101680C3151E8002F42F0400241E8A1
:101ED0000023002BF5D110BDFFF74AFE10BD10B551
:101EE000806BFFF757FE10BD01680C3151E8002FE1
:101EF00022F4907241E80023002BF5D101681431DF
:101F000051E8002F22F0010241E80023002BF5D117
:101F1000016B012909D101680C3151E8002F22F031
:101F2000100241E80023002BF5D1202180F8421057
:101F300000210163704701680C3151E8002F22F045
:101F4000C00241E80023002BF5D1202180F8411088
:101F5000704740B139B132B1C16002822BB1012B5F
:101F600007D0022B08D00720704700780A23FEF71D
:101F7000FBBA0078FEF720BB0078FEF709BB08B576
:101F800090F84210222901D0022008BD82684FF447
:101F900080539A4201D1016921B1816A9A421BD0D2
:101FA0004AB10AE00268816A5268C2F308020A80F4
:101FB000816A891C08E0026972B10268526802F005
:101FC0007F020A70816A491C8162C18D491E090421
:101FD000090CC18503D01BE002685268F1E7016873
:101FE000CA6822F02002CA600168CA6822F48072BE
:101FF000CA6001684A6922F001024A61202180F822
:10200000421000214163026B012A03D0FFF7F0FC6C
:10201000002008BD016301680C3151E8002F22F057
:10202000100241E80023002BF5D101680A68D206AE
:1020300002D50A6849680091818DFFF77DFAE7E7CC
:1020400070B504000D4605D00846FEF77DFA010084
:1020500002D008E0012070BD257000206060E060C3
:10206000208120826061084670BD40B139B132B133
:10207000416002812BB1012B07D0022B08D0072031
:10208000704700780A23FEF7ABBA0078FEF7D0BAA3
:102090000078FEF7B9BA000070B50446006801691F
:1020A000E26821F44051114301612169A068E269AD
:1020B00008436169114308432168CA6849F20C6307
:1020C0009A430243CA6020684169A26921F44071C1
:1020D0001143416131492068884202D03049884229
:1020E00002D1FFF71FF801E0FFF70CF8E2690023C7
:1020F000192164253226B2F5004F626828D0A0FB72
:102100000101930F9200FEF7AFF80146B0FBF5F026
:102110006FF01802504301EB800006EB0010B0FB9B
:10212000F5F000F0F002B1FBF5F002EB0012B1FBAC
:10213000F5F06FF01803584301EB800006EB001038
:10214000B0FBF5F000F00F0021681044886070BD0E
:10215000A0FB010192185B41FEF786F80146B0FB37
:10216000F5F00201B1FBF5F06FF01803584301EBF5
:10217000800006EBC000B0FBF5F000F0F80002EBC9
:102180004002B1FBF5F0584301EB800006EBC000C4
:10219000B0FBF5F000F00700D6E7000000100140AA
:1021A0000014014038B58162044682850020134640
:1021B0006064222284F84220E56B1F4AEA63E56BE3
:1021C0001E4A2A64E56B1E4AEA64E26B10650A4601
:1021D0002168E06B091DFEF7F1FC30B1102060644E
:1021E000202084F84200012038BD20680168406842
:1021F0000090206948B120680C3050E8001F41F47D
:10220000807140E80012002AF5D12068143050E8AF
:10221000001F41F0010140E80012002AF5D12068BA
:10222000143050E8001F41F0400140E80012002A3D
:10223000F5D1002038BD0000F91D00087F1E000800
:10224000AF1D000881628285C28500214164222180
:1022500080F84210016921B10168CA6842F48072B5
:10226000CA6001684A6942F001024A610068C168B7
:1022700041F02001C160002070472DE9F8439846E5
:1022800017460D460446089E24E0701C22D0FEF737
:10229000FFFDA0EB0800B0421AD8CEB12068C1689B
:1022A000490717D5802D15D0402D13D00168C9439B
:1022B00009070FD401680025406800902046FFF709
:1022C00013FE0820606484F840500120BDE8F883C4
:1022D0000320FBE72068006835EA000004D00020F6
:1022E000B842D2D00020F1E70120F9E70148FFF71A
:1022F00025B90000D0000020FEE70907090E0028DC
:1023000004DB00F1E02080F80014704700F00F00BB
:1023100000F1E02080F8141D704700002DE9F04125
:10232000884641001446891C2DED028B1F46A142B0
:1023300041D36108401CB0FBF1F000EE100A00260A
:10234000F8EE408A35E000239FED1D8A1A461946B3
:102350001C48FEF78DFA002510E000BF38EE288AF1
:10236000002211461748BCEEC80A10EE103AFEF7DC
:102370007FFA4046FEF76CFC6D1CADB2B5EB540F16
:10238000ECD3002510E000BF38EE688A0022114629
:102390000C48BCEEC80A10EE103AFEF769FA404647
:1023A000FEF756FC6D1CADB2B5EB540FECD3761CAA
:1023B000B6B2BE42C7D3BDEC028BBDE8F0810000CF
:1023C00000000000BC000020FEF770FDFFF790FC4D
:1023D000FFF74EFCFFF72EFCFFF768FCFFF70CFC45
:1023E00000211F48FFF7F0FB01211D48FFF7ECFB20
:1023F0004FF4FA7529461A48FFF7F7FB18482946A3
:102400000C30FFF7F2FB164800211830FFF718FEDA
:102410004FF48056FEF73CFD044601461048FFF796
:10242000BBFB0F4821460C30FFF7B6FB6423142298
:1024300029463046FFF772FF094901233031402217
:10244000A1F11800FFF785FD0549022330313F2235
:10245000A1F11800FFF709FE6420FEF7E7FBD9E7BA
:102460004C0000204FF04070E1EE100A704700066B
:102470001016000610160000000000000000010207
:10248000030406070809000000000102030400001D
:10249000B0240008000000204C000000C401000827
:1024A000FC2400084C000020EC070000E0010008BC
:1024B0000100000010000000000000000024F400F3
:1024C0000000024040000000000C024080000000BC
:1024D000000402400100000000000000D0000020C5
:1024E00000000000000000000000000000000000EC
:0C24F000000000000000000000000000E0
:040000050800018965
:00000001FF
