:020000040800F2
:100000003809002029020008132500088D23000864
:1000100011250008C50800082D2800080000000070
:10002000000000000000000000000000172500088C
:10003000C509000800000000152500081925000862
:10004000430200084302000843020008430200087C
:10005000430200084302000843020008430200086C
:10006000430200084302000843020008430200085C
:10007000430200084302000843020008430200084C
:100080004302000843020008AD04000843020008D0
:10009000430200084302000843020008430200082C
:1000A000430200084302000843020008430200081C
:1000B000430200084302000843020008430200080C
:1000C00043020008430200084302000843020008FC
:1000D00043020008212800084302000843020008E8
:1000E00043020008430200084302000843020008DC
:1000F00043020008430200084302000843020008CC
:1001000043020008430200084302000843020008BB
:100110004302000843020008C1250008430200080A
:10012000FD0800084302000809090008430200080E
:10013000430200084302000843020008430200088B
:10014000430200084302000843020008430200087B
:100150004302000843020008150900084302000892
:10016000430200084302000843020008430200085B
:100170004302000843020008430200080000000098
:10018000430200084302000800F002F800F03CF8C7
:100190000AA090E8000C82448344AAF10107DA45E2
:1001A00001D100F031F8AFF2090EBAE80F0013F0F8
:1001B000010F18BFFB1A43F00103184798270000EE
:1001C000B8270000103A24BF78C878C1FAD852077F
:1001D00024BF30C830C144BF04680C6070470000C1
:1001E0000023002400250026103A28BF78C1FBD840
:1001F000520728BF30C148BF0B6070471FB502F0DF
:1002000093FB1FBD10B510BD00F0CFF81146FFF7EE
:10021000F5FF02F01DFB00F0EDF803B4FFF7F2FF6D
:1002200003BC00F0F5F80000094880470948004782
:10023000FEE7FEE7FEE7FEE7FEE7FEE7FEE7FEE796
:10024000FEE7FEE704480549054A064B70470000F3
:10025000B125000889010008380300203809002072
:10026000380500203805002053EA020C00F06980B0
:100270002DE9F04B4FF00006002B1FBFB3FA83F5BA
:1002800003FA05F424FA05F65E4012BF1643B2FAEB
:1002900082F502FA05F4C5F120051EBF22FA05FC1D
:1002A00044EA0C04203556EA044C4FEA144418BFC3
:1002B000641C4FF000084FF00009904271EB030CF2
:1002C00039D3002919BFB1FA81F701FA07F6B0FA5C
:1002D00080F700FA07F6C7F120071EBF20FA07FCD7
:1002E00046EA0C062037B6FBF4FCA7EB0507103FE7
:1002F00007F01F0BCBF120060CFA0BFB2CFA06F6CD
:1003000044BFB3460026202FA4BF5E464FF0000B2B
:100310005BEA060C08BF4FF0010B19EB0B09ABFBB6
:10032000027C48EB0608C01B06FB02CC0BFB03CC8F
:1003300071EB0C01C1E70B46024641464846BDE859
:10034000F08B13B54FF000004FF00001AFF30080C9
:10035000BDE81C4070474FF0000200B513469446BC
:100360009646203922BFA0E80C50A0E80C50B1F10D
:100370002001BFF4F7AF090728BFA0E80C5048BF21
:100380000CC05DF804EB890028BF40F8042B08BFBF
:10039000704748BF20F8022B11F0804F18BF00F8BB
:1003A000012B7047704770477047754600F02CF876
:1003B000AE4605006946534620F00700854618B052
:1003C00020B5FFF73FFFBDE820404FF000064FF09B
:1003D00000074FF000084FF0000B21F00701AC467A
:1003E000ACE8C009ACE8C009ACE8C009ACE8C00999
:1003F0008D46704710B50446AFF300802046BDE837
:100400001040FFF70ABF000000487047D4020020E8
:1004100001491820ABBEFEE726000200704710B568
:100420000146806B026C12F0500F05D0026CD206B0
:1004300026D500F073FB10BD016C41F4007101641E
:1004400001688A6812F0405F17D1027EAAB9CA6AB1
:1004500012F4700F02D08A6852050ED44A6822F056
:1004600020024A60016C21F480710164016CC904AE
:1004700003D4016C41F00101016400F04DFB10BD9B
:10048000806BC26CBDE810400846104710B5806B09
:1004900040210164416C41F00401416400F03EFBE5
:1004A00010BD10B5806B00F038FB10BD014800F0A6
:1004B00039BB000010010020464910B54A6822F4FB
:1004C00040324A604A6843681A434A6001684A6891
:1004D00022F480724A6001684A68036942EA032292
:1004E0004A6001684A6822F040724A6001684A68BE
:1004F00083681A434A6001688A6822F400628A604D
:1005000001688A68C3681A438A60816A6FF0706202
:10051000D14201688A6822F070628A6001688A6844
:100520000CD0836A1A438A6001688A6822F04052BC
:100530008A6001688A68C36A1A4301E022F0405267
:100540008A6001688A6822F002028A6001688A680B
:10055000037E42EA43028A6090F820100029016875
:100560004A680FD042F400624A6001684A6822F487
:1005700060424A6001684A68174C436A04EB43339F
:100580001A4301E022F400624A600168CA6A22F458
:100590007002CA620168CA6A838B104C04EB035371
:1005A0001A43CA6201688A6822F400728A6001688C
:1005B0008A6890F8303042EA43228A6001688A688B
:1005C00022F480628A6001688A68406942EA802079
:1005D000886010BD0023014000E0FFFF0000F0FF35
:1005E00070B504000D4605D0084600F059F801002A
:1005F00002D007E0012070BD2570002060602081DE
:100600006081E060084670BD2DE9F04116460F4656
:10061000040008D03FB136B16760268133B1012BA9
:1006200017D0022B1AD00320BDE8F08100250DE081
:10063000207800F047F80028F6D107EB4501207834
:1006400000F014F80028EFD16D1CADB2B542EFD325
:10065000EAE70078BDE8F04100F074B8007832466F
:100660003946BDE8F04100F04FB80000032801D240
:10067000012200E0002252420A4201D103207047C9
:10068000064A00EB400002EB8000027A1AB1408972
:10069000088000207047022070470000680000209A
:1006A000032801D301207047054900EB400001EB0E
:1006B000800001210172002141810846704700003D
:1006C0006800002010B5032801D3012010BD0D499A
:1006D00000EB400001EB8004207A20B1206800F09C
:1006E0008DFB38B901E0022010BD0A21206800F01E
:1006F0002FFB08B1042010BD206800F010FA6081C3
:10070000002010BD6800002010B5032801D201238D
:1007100000E000235B420B420ED06AB1084B00EBB5
:10072000400003EB8000037A43B1006800F0E4FB73
:10073000002800D0042010BD032010BD022010BDF1
:100740006800002010B5032801D3012010BD08491E
:1007500000EB400001EB8000017A31B1006800F04D
:1007600077FC0028F2D0042010BD022010BD00004C
:100770006800002010B5022801D3012010BD0849EF
:1007800000EB400001EB8004D4E9000100F0A1FD82
:1007900008B1042010BD012020720020608110BD2E
:1007A0005000002070B50D46022801D3012070BD15
:1007B0000A4900EB400001EB8004207A40B1D4E903
:1007C00000012B46002200F073FD18B1042070BD1B
:1007D000022070BD6581002070BD00005000002027
:1007E0002DE9F04186B00446032803D3012006B06A
:1007F000BDE8F08114216846FFF7ADFD234E244A81
:10080000244956F834000025904207D10A6842F086
:1008100004020A60096801F004011FE01E4A9042C8
:1008200007D10A6842F002020A60096801F0020179
:1008300014E01A4A904207D10A6842F001020A60A5
:10084000096801F0010109E0154A904207D10A68E0
:1008500042F008020A60096801F00801059106EB00
:10086000C4074FF00108B9880091CDE901856946B8
:10087000039500F02DFFB98856F83400002201F0EE
:100880001FF887F80680FD710020B0E718000020EF
:1008900000080240303802400004024000000240DC
:1008A000000C0240022805D2054901EB001118B1E5
:1008B000012801D0012070470120087100207047F5
:1008C00030000020FEE718B181810078FFF76ABF91
:1008D0000320704770B504000D4605D00846FFF7A9
:1008E00049FF010002D007E0012070BD2570002003
:1008F0006060A060A0812061084670BD014800F0E2
:1009000075BD000058010020014800F06FBD0000D7
:1009100014020020014800F069BD000074020020AC
:1009200001681823CAB2103AB2FBF3F2054B6FF319
:100930000901032A9B5CC36500D9091D816508462E
:10094000704700003229000810B5014600208B696D
:100950008A6A4FF0C07453B1B3F5005F15D072B11D
:10096000012A0CD0022A0AD0032A09D104E01AB1C4
:10097000012A06D0022A03D1C96AC90100D5012083
:1009800010BDC96AA142FAD010BD002AF7D0012AD1
:10099000F2D0022AF3D0032AF3D010BD30B5046898
:1009A000256825F480252560046863608368402BF2
:1009B000036803D099600068C26030BD9A60006827
:1009C000C16030BD704772B6FEE7704778B500244D
:1009D000009490F83C20012A19D0012280F83C2094
:1009E0000A6807230568092A13D9EE680A3A02EB58
:1009F000420293409E43EE600B788A680A3B03EB09
:100A000043039A400368DD682A43DA6010E002205D
:100A100078BD2E6902EB420293409E432E610B7813
:100A20008A6803EB43039A4003681D692A431A61ED
:100A30004A681F23072A13D205686E6B521E02EB09
:100A4000820293409E436E630B790A885B1E92B2CA
:100A500003EB83039A4003685D6B2A435A6327E0E4
:100A600005680D2A12D22E6BD21F02EB8202934030
:100A70009E432E630B790A88DB1F92B203EB83033C
:100A80009A4003681D6B2A431A6311E0EE6A0D3A1F
:100A900002EB820293409E43EE620B790A880D3B83
:100AA00092B203EB83039A400368DD6A2A43DA6259
:100AB000164B0568144A9D4206D10D68122D03D1CC
:100AC000556845F48005556005689D4218D10B684E
:100AD000102B01D0112B13D1536843F40003536042
:100AE000096810290CD10A490A4A0968B1FBF2F1D8
:100AF00001EB8101490000E0491E00910029FBD172
:100B000080F83C40002078BD0023014000200140D7
:100B10001400002040420F00704770477047006883
:100B2000C06C704770B5044600680668456816F0EA
:100B3000020F05F020012AD049B3216CC90603D465
:100B4000216C41F400712164816811F0405F17D17C
:100B5000217EA9B9C16A11F4700F02D081684905DC
:100B60000ED4416821F020014160206C20F4807097
:100B70002064206CC00403D4206C40F00100206489
:100B80002046FFF7C9FF21686FF01200086016F0D9
:100B9000040F05F0800132D089B3206CC00603D465
:100BA000206C40F4005020642068816811F4401FDC
:100BB0001ED1816B11F4401F02D08168490517D402
:100BC0004168490514D4816811F0405F10D1217E3D
:100BD00071B9416821F080014160206C20F480509F
:100BE0002064206CC00503D4206C40F00100206418
:100BF0002046FFF7EAFE21686FF00C00086016F04F
:100C0000010F05F040010FD071B120680068C007E6
:100C10000AD0206C40F480302064204600F043F875
:100C200021686FF00100086016F0200F05F0806168
:100C30000ED000290CD0606C40F002006064206887
:100C40006FF0200505602046FFF768FF206805600B
:100C500070BD70B504004FF0000503D0206C002675
:100C600010B107E0012070BD204600F01DF8666459
:100C700084F83C60206CC00610D4206C20F48850AE
:100C800040F0020020642046FFF716FC6664206CEA
:100C900020F0020040F00100206400E0012584F80B
:100CA0003C60284670BD704770B586B0064614217A
:100CB0006846FFF750FB2149306888423CD1204804
:100CC0000025016841F480710160006800F48070C3
:100CD00005901B481438016841F00101016000686B
:100CE000694600F001000590012000900320CDE945
:100CF0000105144800F0ECFC144C1348C4E900054D
:100D00000015A560C4E90350400060618000A06147
:100D10004011C4E907052046656200F037FC08B1C0
:100D2000FFF751FEB463002211461220A66300F0C3
:100D30003BFE122000F02AFE06B070BD00200140EC
:100D40004438024000000240106402405801002074
:100D50002DE9F041044600680D4681684FF0000718
:100D600049050BD58068C00508D5206C40F02000EF
:100D7000206484F83C700120BDE8F08100F0A6FDFD
:100D8000064613E0681C11D025B100F09FFD801BC2
:100D9000A8420BD920680068800707D4206C40F077
:100DA0000400206484F83C700320E5E720680068B4
:100DB0008007E7D521686FF012000860206C40F4CE
:100DC000007020642068816811F0405F13D1217E9B
:100DD00089B9C16A11F4700F02D0806840050AD445
:100DE000206C20F480702064206CC00403D4206C3C
:100DF00040F0010020640020BEE7000018B500218B
:100E0000009190F83C20012A07D0012280F83C2074
:100E100002689368DB0702D011E0022018BD9368D6
:100E200043F0010393602E4A2E4B1268B2FBF3F29B
:100E300002EB420200E0521E0092002AFBD102683F
:100E40009368DB0742D0036C40F20164A34343F490
:100E50008073036453685B0505D5036C23F400536A
:100E600043F480530364036CDB0404D5436C23F028
:100E70000603436400E0416480F83C101A496FF0B7
:100E80002203136049680068CA06184906D08842E0
:100E900024D1816811F0405F13D01FE08842F8D060
:100EA000134A904203D1D1F80423D206F1D0114A5B
:100EB000904213D1D1F8041301F01F011029E8D397
:100EC0000CE0816841F08041816007E0016C41F0F5
:100ED00010010164416C41F001014164002018BD22
:100EE0001400002040420F00002301400020014078
:100EF0000021014000220140F8B50E4600210446C1
:100F0000009190F83C0013460A46012807D00120C2
:100F100084F83C0020688568ED0702D011E00220CB
:100F2000F8BD856845F0010585604048404D006882
:100F3000B0FBF5F000EB400000E0401E0090002800
:100F4000FBD120688568ED0503D5856825F480759B
:100F5000856020688568ED075DD0226C40F20165F0
:100F6000AA4342F4807222644068400505D5206C93
:100F700020F4005040F480502064206CC00404D55C
:100F8000606C20F00600606400E0616484F83C104E
:100F9000A16B2948274DC863A16B28480864A16B41
:100FA0002748C86421686FF0220008602068416803
:100FB00041F0806141602068816841F48071816006
:100FC000216832464C31A06B00F04AFB024668684B
:100FD0001C49C006206806D0884224D1816811F0DF
:100FE000405F13D01FE08842F8D0174B984203D1DE
:100FF000D1F80433DB06F1D0144B984213D1D1F869
:10100000041301F01F011029E8D30CE0816841F0BE
:101010008041816007E0206C40F010002064606C2B
:1010200040F0010060641046F8BD0000140000208C
:1010300040420F00002301401F040008A3040008E1
:101040008D040008002001400021014000220140E1
:1010500018B50021009190F83C20012A07D0012208
:1010600080F83C2002689368DB0702D011E0022080
:1010700018BD936843F001039360314A314B126805
:10108000B2FBF3F202EB420200E0521E0092002A91
:10109000FBD102689368DB0747D0036C40F2016420
:1010A000A34343F48073036453685B0505D5036C65
:1010B00023F4005343F480530364036CDB0404D52E
:1010C000436C23F00603436400E0416480F83C1065
:1010D0001D4B6FF02201116001684A681B4C2243CE
:1010E0004A6059680068CA06194906D0884224D166
:1010F000816811F0405F13D01FE08842F8D0154A94
:10110000904203D1D1F80423D206F1D0124A904282
:1011100013D1D1F8041301F01F011029E8D30CE01A
:10112000816841F08041816007E0016C41F010016D
:101130000164416C41F001014164002018BD0000D0
:101140001400002040420F00002301402000000452
:10115000002001400021014000220140704770B58D
:1011600000B3F9B14379012B1ED001264671022349
:10117000037105682C6802F0100340F6FE729A4075
:101180009443D1E900210A439A4022432A6001682E
:101190000A68C0249C40A2430A6006710021417184
:1011A000084670BD012070BD022070BD70472DE95A
:1011B000F041044600680668456BB1044FF004072F
:1011C00010D5A9040ED52771216941F001012161D3
:1011D000F90241632068016821F4805101602046D2
:1011E000FFF7E4FFB00014D5A80012D527712069DD
:1011F00040F00200206121684FF0005048632068F1
:10120000016821F0805101602046BDE8F041FFF700
:10121000A5BFBDE8F08170B5040003D0207900259A
:1012200010B105E0012070BD6571204600F008F89E
:1012300002202071256101202071002070BD000076
:1012400010B586B0044614216846FFF784F81549A6
:101250002068884224D114480021026842F00052DC
:101260000260006800F0005005900F4810380268D6
:1012700042F001020260006800F0010005901020B9
:1012800000900320CDE901016946084800F020FAEA
:1012900000221146362000F087FB362000F076FB56
:1012A00006B010BD0074004040380240000002400B
:1012B00018B50024009440B100680090104431B18A
:1012C000143000900360002018BD012018BD0830C4
:1012D000F7E770B508B34279012A20D001224271A4
:1012E000022303710468266801F0100302FA03F573
:1012F0002E4326600029016813D00C6804F4701591
:101300003C249C40A54203D14B6843F002034B6050
:10131000027100214171084670BD012070BD02209C
:1013200070BD0B68C3F383030F2BF1D14B6843F0FF
:101330000103ECE72DE9F0410446876D00F0C6FAA1
:10134000064694F835000025022806D08020606506
:1013500084F834500120BDE8F0812068016821F054
:10136000160101602068416921F080014161206C13
:1013700008B9A06C20B12068016821F00801016063
:101380002068016821F0010101600CE000F09EFA84
:10139000801B052807D920206065032084F83500CC
:1013A00084F83450D7E720680068C007EED194F87D
:1013B0005C103F208840B860012084F8350084F834
:1013C00034500020C7E790F83510022903D080215F
:1013D000416501207047052180F8351000680168DB
:1013E00021F0010101600020704700002DE9F84361
:1013F00004464FF00009CDF8009063484FF41651B1
:10140000A56D0068B0FBF1F72E6894F85C10082019
:1014100000FA01F131420FD021680A6852070BD55A
:101420000A6822F004020A6094F85C108840A86000
:10143000606D40F00100606594F85C104FF00108A9
:1014400008FA01F0304208D021684969090604D53C
:10145000A860606D40F00200606594F85C100420A4
:101460008840304208D021680968890704D5A860FF
:10147000606D40F00400606594F85C1010208840B6
:10148000304218D021680968090714D5A86020687F
:101490000168490304D50068000308D5A16C07E082
:1014A0000168C90503D4016821F008010160216CBD
:1014B00009B12046884794F85C10202088403042CB
:1014C00031D021680968C9062DD5A86094F8350087
:1014D00005282068016806D0490347D50068000345
:1014E0001DD4616C1CE021F0160101602068416987
:1014F00021F080014161206C08B9A06C20B1206806
:10150000016821F00801016094F85C103F208840D8
:10151000A86084F8358084F83490216D1FE0E16B79
:1015200009B120468847606D00282BD0606DC00748
:1015300014D0052084F835002068016821F00101ED
:1015400001600098401C0090B84203D820680068F1
:10155000C007F6D184F8358084F83490E16C002916
:1015600010D001B02046BDE8F04308470168C90526
:10157000D5D4016821F01001016084F8358084F829
:101580003490CCE7BDE8F883140000202DE9F04149
:10159000044600F09BF906465CB1022084F8350051
:1015A000002584F834502068016821F001010160B1
:1015B0000DE00120BDE8F08100F088F9801B0528CE
:1015C00005D920206065032084F83500F2E7206803
:1015D0000068C007F0D12268116820480140D4E9B2
:1015E00001031843D4E903363343184363691843AE
:1015F000A3691843E3691843236A18430843616ADF
:10160000042903D1D4E90B1319430843106020685F
:101610004069666A20F0070130460E43012704281E
:101620000CD1A06A0643E06A40B12046FFF78CF96E
:1016300020B14020606584F83570BAE720684661C3
:101640002046FFF76DF994F85C203F2191408160BE
:10165000656584F835700020ACE700003F8010F02D
:101660002DE9F0410446866D90F8340000250128EC
:101670000DD0012084F8340094F835700020012F3B
:1016800007D084F8340002252846BDE8F081022006
:10169000FBE7022784F8357060652046FFF77EF986
:1016A00094F85C103F208840B0602068016841F0E9
:1016B00016010160206C20B12068016841F008012A
:1016C00001602068016841F001010160DCE7000071
:1016D0002DE9F84FDFF8BCA10022012503264FF0C9
:1016E0000F090AF1040BAAF1040E00BF0B6805FAFA
:1016F00002F42340A34270D10F7907F00307012FB2
:1017000001D0022F16D187684FEA420806FA08FC7A
:1017100027EA0C07D1F80CC00CFA08FC4CEA070CBD
:10172000C0F808C04768A7430C79C4F3001494407C
:101730003C4344600C79E443A4070AD0C4684FEAF0
:10174000420C06FA0CF7BC438F6807FA0CF72743E4
:10175000C7600C7904F00304022C12D1D40800EB0A
:10176000840CDCF820405707FF0E09FA07F824EA3A
:101770000804D1F8108008FA07F848EA0408CCF801
:10178000208004684FEA420C06FA0CF7BC430F793C
:1017900007F0030707FA0CF7274307604C6814F4B7
:1017A000403F70D03C4C276847F48047276024684E
:1017B00022F0030704F480440094384C07EB040C37
:1017C000DCF8084897074FEA177809FA08F7BC438E
:1017D000334FB84202D1002724E054E0314FB842E1
:1017E00001D101271EE0304FB84201D1022719E094
:1017F0002E4FB84201D1032714E02D4FB84201D13A
:1018000004270FE02B4FB84201D105270AE02A4FE9
:10181000B84201D1062705E0284FB84201D1072779
:1018200000E0082707FA08F72743CCF80878DAF829
:1018300000405746D1F804C09C435FEACC2C00D549
:101840001C433C60DBF800405F46D1F804C09C4379
:101850005FEA8C2C00D51C433C60DEF800407746E4
:10186000D1F804C09C435FEA8C3C00D51C433C602B
:10187000084F083F3C68D1F804C09C435FEACC3C69
:1018800000D51C433C60521C102AFFF42FAFBDE86A
:10189000F88F0000083C014044380240003001400D
:1018A000000002400004024000080240000C024018
:1018B000001002400014024000180240001C0240C8
:1018C0000AB1816170470904FBE7000001488068A4
:1018D0007047000008000020024881680278114427
:1018E00081607047080000200B4810B5016841F482
:1018F00000710160016841F480610160016841F498
:1019000080710160032000F06FF80F2000F006F8EE
:1019100000F024F8002010BD003C024070B50D4DD1
:1019200004464FF47A712878B1FBF0F00A4909684F
:10193000B1FBF0F000F00AFB48B9102C07D20022EE
:101940002146501E00F030F800206C6070BD012070
:1019500070BD000008000020140000200A4808B5EF
:10196000016841F480410160006800F4804000900B
:101970000548001F016841F080510160006800F0D7
:101980008050009008BD000044380240002809DB68
:1019900000F01F02012191404009800000F1E02089
:1019A000C0F8001170470000F0B40E4B1B680C46E5
:1019B000C3F30223C3F10705042D00D90425191D23
:1019C000072901D2002300E0DB1E012606FA05F1FB
:1019D000491E214099409E40761E16403143F0BC7E
:1019E00000F025BF0CED00E0064900F00702086892
:1019F0004FF6FF03184040EA0220034A10430860F4
:101A0000704700000CED00E00000FA052DE9F047FA
:101A10000E46050065D0DFF81481D8F80000F7B253
:101A200000F00700B04207D288F80070D8F8000034
:101A300000F00700B04254D128683D4C810712D510
:101A4000400703D5206840F4E05020602878000764
:101A500003D5206840F4604020602068A96820F029
:101A6000F000084320602878C0072DD0304968680E
:101A70000839012812D0022813D0032811D0096890
:101A8000890700292DDA216821F003010143216033
:101A9000FFF71CFF814641F2883A0EE0096889038E
:101AA000EFE709688901ECE7FFF710FFA0EB0901F8
:101AB000514502D90320BDE8F0872068696800F02D
:101AC0000C00B0EB810FEFD1D8F80010404601F0C8
:101AD0000701B14207D90770006800F00700B04263
:101AE00001D00120E7E72878400705D52068E9689C
:101AF00020F4E050084320602878000706D52068CD
:101B0000296920F4604040EAC100206000F038F804
:101B10002168084AC1F30311515CC84006490860B6
:101B200006480068FFF7FAFE0020C4E7003C0240C8
:101B3000083802403A290008140000200C00002058
:101B40000448054900680968044AC1F38221515CD0
:101B5000C840704714000020083802404A29000895
:101B60000448054900680968044AC1F34231515CE0
:101B7000C840704714000020083802404A29000875
:101B8000154810B5006810F00C02144813D041102D
:101B9000042A0FD0082A0ED10F4C241F2268236874
:101BA00002F03F025B0207D52068C0F38810A0FB5B
:101BB000010106E0084610BD2168C1F38811A1FBB0
:101BC00000010023FEF750FB2168C1F30141491CCD
:101BD0004900B0FBF1F010BD083802400024F400C9
:101BE0002DE9F84F04006ED02078DFF84C93C00741
:101BF000A9F104054AD009F104000168C1F381018B
:101C0000012908D00068C0F3810002280AD1D9F860
:101C10000000400206D52868800337D56068002898
:101C2000E1D033E06068B0F5803F10D0B0F5A02F70
:101C3000286810D020F480302860286820F48020A4
:101C400028606068A8B1FFF741FE06460DE02868ED
:101C500040F48030F4E740F480202860F7E700BFCC
:101C6000FFF734FE801B642873D828688003F7D5FB
:101C70000CE0FFF72BFE064605E000BFFFF726FE4F
:101C8000801B6428F0D828688003F7D42078DFF818
:101C9000AC8280074FF0000A3ED5A748001D0168BE
:101CA00011F00C0F08D00068C0F3810002280BD19E
:101CB000D9F80000400207D42868800716D5E068EC
:101CC000012800D112E033E1E068B8B10120C8F882
:101CD0000000FFF7FBFD064605E000BFFFF7F6FD3D
:101CE000801B0228C0D828688007F7D5286821699A
:101CF00020F0F80040EAC10028600DE0C8F800A01C
:101D0000FFF7E4FD064604E0FFF7E0FD801B022834
:101D10001FD828688007F7D42078000722D5864F7F
:101D200087486169703771B101210160FFF7CEFD0D
:101D3000064604E0FFF7CAFD801B022809D8386870
:101D40008007F7D50EE0C0F800A0FFF7BFFD0646FC
:101D500005E082E0FFF7BAFD801B02287DD83868D5
:101D60008007F7D42078400768D5DFF8CCB100278A
:101D70000BF13C0BDBF80000C0000BD4DBF80010CB
:101D800041F08051CBF80010DBF80000012700F093
:101D9000805000906B4E3068C00510D4306840F41D
:101DA00080703060FFF792FD009005E0FFF78EFD38
:101DB0000099401A022850D83068C005F6D55E4E0A
:101DC000A0686C3601280FD00528306810D020F0AC
:101DD00001003060306820F004003060A068B8B1C5
:101DE000FFF774FD00900FE0306840F00100F4E769
:101DF00040F004003060F7E7FFF768FD0099411AF2
:101E000041F28830814266D830688007F4D50EE010
:101E1000FFF75CFD009007E0FFF758FD0099411ABD
:101E200041F28830814256D830688007F4D42FB10F
:101E3000DBF8001021F08051CBF80010A069C8B386
:101E40003D49091D0968C1F3810102294AD00228D0
:101E5000504607D0C8F8600000E03CE0FFF736FDD0
:101E600004463BE04746C8F86000FFF72FFD0646F2
:101E700005E000BFFFF72AFD801B02282BD8286849
:101E80008001F7D4D4E907010843A16A2E4A490822
:101E900002EB0141626A41EA8211084394F82C1076
:101EA00040EA0161C9F8001001203866FFF70EFD15
:101EB000044606E03EE000BFFFF708FD001B0228D5
:101EC00009D828688001F7D534E000BFFFF7FEFC91
:101ED000001B022802D90320BDE8F88F2868800182
:101EE000F4D427E00128F7D0D9F80000E26900F423
:101EF000800191421CD1226A00F03F01914217D12A
:101F000047F6C071626A0140B1EB821F10D1A26A2C
:101F10004FF0FF3300F4403103EB5202B1EB024FBC
:101F200006D194F82C1000F07060B0EB016F01D076
:101F30000120D1E70020CFE70438024000004742EB
:101F4000800E4742007000400000FFFF10B5401EA9
:101F5000B0F1807F01D3012010BD4FF0E02460611B
:101F60000F21601700F063FC0020A06107202061B2
:101F7000002010BD70477047F8B501680446086836
:101F8000CA684B6910F00F0F4FF0000559D003F0ED
:101F9000010602F49077374365D0C10705D0D1051B
:101FA00003D5616C41F001016164410705D5D90792
:101FB00003D0616C41F002016164810705D5D90746
:101FC00003D0616C41F004016164010707D502F0A0
:101FD0002001314303D0616C41F008016164616C00
:101FE00000293AD0800604D5900602D5204600F09C
:101FF0001BFB20684069616CC0F38010090700D4A6
:1020000060B3204600F0E9FA20684069400621D517
:102010002068143050E8001F21F0400140E8001211
:10202000002AF5D1E06BA8B172490165E06BFFF7BA
:10203000CAF9002811D0E06B016D01B0BDE8F04095
:10204000084783060FD593060DD52046BDE8F84016
:1020500000F0EABA2046FFF78EFFF8BD2046FFF7F2
:102060008AFF6564F8BD266B2023012E7ED1C6064B
:102070007CD5D6067AD508684868009048694FF044
:10208000020640064DD5E26B106840684FF4807739
:102090000004000C3AD0A18D814237D9E085D06987
:1020A000B8422DD020680C3050E8001F21F4807118
:1020B00040E80012002AF5D12068143050E8001FD3
:1020C00021F0010140E80012002AF5D12068143007
:1020D00050E8001F21F0400140E80012002AF5D12D
:1020E00084F84230256320680C3050E8001F21F04E
:1020F000100140E80012002AF5D1E06BFFF71AF951
:102100006663A08DE18D401A81B206E0A18D814207
:10211000A8D1D069B842A5D166632046FFF72AFF4F
:10212000F8BDA08DE18D401A81B2E08D0028F7D076
:102130000029F5D020680C3050E8002F22F490726E
:1021400040E80027002FF5D12068143050E8002F18
:1021500022F0010240E80027002FF5D184F8423038
:10216000256320680C3050E8002F00E006E022F0E4
:10217000100240E80023002BF3D1CDE705062BD554
:10218000150629D594F841002128C9D1A068B0F5D9
:10219000805F01D12069B0B1206A411C21622168B1
:1021A00000784860E08C401E0004000CE084B7D149
:1021B0002068C16821F08001C1602068C16841F0D9
:1021C0004001C160F8BD206A0088C0F30800486083
:1021D000206A801C2062E5E74006F3D55006F1D561
:1021E000CA68204622F04002CA6084F8413000F0FC
:1021F000BBF8F8BDCD25000870B5040004D094F8F4
:102200004100002510B106E0012070BD84F8405067
:10221000204600F023F8242084F841002068C1689B
:1022200021F40051C160204600F074FA2068016971
:1022300021F4904101612068416921F02A01416146
:102240002068C16841F40051C1606564202084F8B1
:10225000410084F842006563002070BD2DE9F04123
:1022600086B0064614216846FEF775F83049306896
:1022700088425AD12F480024016841F010010160C2
:10228000006800F0100005902A481438016841F0F9
:10229000010101600068694600F0010005904FF4FB
:1022A000C06000900220CDE90104032003900720C4
:1022B00004902148FFF70CFA214D20484FF00067A9
:1022C0002860C5E901744FF48068C5E903488015AA
:1022D0006C61C5E906402C6228466C62FFF756F92E
:1022E00008B1FEF770FBF563AE63154D134860351A
:1022F0007830E5E802074020A5E81101104845F8CC
:1023000014496030AC61EC612C626C62FFF73EF9FD
:1023100008B1FEF758FBB563002211462520AE63D5
:10232000FFF742FB2520FFF731FB06B0BDE8F08147
:102330000010014044380240000002404064024066
:102340001402002070B5074E0546002406EB041069
:102350000168A94202D1806800B18047641C022C48
:10236000F4DB70BD3000002070B5074E0546002438
:1023700006EB04100168A94202D1C06800B1804791
:10238000641C022CF4DB70BD30000020FEE770B549
:1023900004000D460AD00846FEF722FA002804D1B0
:1023A0002570002161706160A16070BD012070BD69
:1023B0007FB50024154800940194029412490394B7
:1023C00001604FF48031C0E90114012504610576F4
:1023D00080F820400E49C0E90A14C561C46080F845
:1023E00030504561FEF735FC08B1FEF7ECFACDE957
:1023F0000045694605480294FEF7E8FA002801D036
:10240000FEF7E1FA7FBD000000200140100100202E
:102410000100000F1CB500240C4900940A480194E7
:1024200008600846FEF7F7FE08B1FEF7CCFA022076
:10243000CDE90040002269460448FEF790FE0028DE
:1024400001D0FEF7C0FA1CBD00740040B8010020A6
:10245000114808B5016841F480010160006800225C
:1024600000F48000009011463820FFF79DFA3820D4
:10247000FFF78CFA002211463A20FFF795FA3A202E
:10248000FFF784FA002211464620FFF78DFABDE8D7
:1024900008404620FFF77ABA303802400D4808B5A8
:1024A000016841F004010160016801F0040100913C
:1024B000016841F080010160016801F08001009134
:1024C000016841F001010160006800F00100009026
:1024D00008BD0000303802400C4810B50A490160C0
:1024E0004FF4E1314160002181600C22C160C0E9FC
:1024F00004128161C161FFF77FFE002803D0BDE8AF
:102500001040FEF760BA10BD00100140CC01002061
:10251000FEE7FEE770477047FFF7DEB930B593B0CE
:1025200030216846FDF717FF14210CA8FDF713FFB3
:102530001D480025016841F080510160006800F0ED
:10254000805011901948016841F480410160006891
:10255000022400F4804011900120009000040190BA
:102560008001CDE9064008AA0420A82182E81300D2
:102570000B906846FFF734FB08B172B6FEE70CA972
:102580000F2081E831004FF4A0500F904FF480509D
:10259000109005210CA8FFF739FA002801D072B677
:1025A000FEE713B030BD000040380240007000402C
:1025B0000248016841F470010160704788ED00E055
:1025C0000148FEF7F4BD0000B801002010B5806B93
:1025D0000021C185FFF7CFFC10BD01680C3151E827
:1025E000002F22F4907241E80023002BF5D10168FE
:1025F000143151E8002F22F0010241E80023002BA2
:10260000F5D1016B012909D101680C3151E8002F86
:1026100022F0100241E80023002BF5D1202180F8A0
:10262000421000210163704708B590F8421022293A
:1026300001D0022008BD82684FF480539A4201D134
:10264000016921B1816A9A421BD04AB10AE002684D
:10265000816A5268C2F308020A80816A891C08E014
:10266000026972B10268526802F07F020A70816AE0
:10267000491C8162C18D491E0904090CC18503D022
:102680001BE002685268F1E70168CA6822F0200284
:10269000CA600168CA6822F48072CA6001684A6927
:1026A00022F001024A61202180F84210002141639A
:1026B000026B012A03D0FFF745FE002008BD01632D
:1026C00001680C3151E8002F22F0100241E800238C
:1026D000002BF5D101680A68D20602D50A6849685C
:1026E0000091818DFFF746FCE7E770B504000D46C9
:1026F00005D00846FEF7D6F8010002D008E0012018
:1027000070BD257000206060E060208120826061E3
:10271000084670BD70B5044600680169E26821F49E
:102720004051114301612169A068E2690843616970
:10273000114308432168CA6849F20C639A43024373
:10274000CA6020684169A26921F440711143416166
:1027500031492068884202D03049884202D1FFF7CF
:10276000FFF901E0FFF7ECF9E26900231921642584
:102770003226B2F5004F626828D0A0FB0101930F0A
:102780009200FDF771FD0146B0FBF5F06FF0180205
:10279000504301EB800006EB0010B0FBF5F000F0B9
:1027A000F002B1FBF5F002EB0012B1FBF5F06FF0B7
:1027B0001803584301EB800006EB0010B0FBF5F066
:1027C00000F00F0021681044886070BDA0FB01017B
:1027D00092185B41FDF748FD0146B0FBF5F00201A0
:1027E000B1FBF5F06FF01803584301EB800006EBE6
:1027F000C000B0FBF5F000F0F80002EB4002B1FBC6
:10280000F5F0584301EB800006EBC000B0FBF5F09B
:1028100000F00700D6E7000000100140001401405E
:102820000148FFF7A9BB0000CC010020FEE7090723
:10283000090E002804DB00F1E02080F80014704746
:1028400000F00F0000F1E02080F8141D7047000038
:102850002DED048BFFF748F8FFF760FEFFF71EFE33
:10286000FFF7F6FDFFF738FEFFF7D4FDFFF7A0FDF9
:1028700000212848FFF78BFD01212648FFF787FD3F
:10288000244800210C30FFF730FF2248002124307B
:10289000FEF720F81F4800213830FDF7A1FE1D4D3E
:1028A0001E4C9FED1D8A9FED1E9ADFED1E9A40F68D
:1028B000FF774835F3EE0E8A26461648394624300F
:1028C000FEF701F81349022348311E22A1F110003E
:1028D000FDF79AFE84ED008A5FF00000D4ED000A57
:1028E00035F81010401C00EE101AC0B21E28B8EEC9
:1028F000400A30EE800A84ED000AEFD3F0EE400A81
:1029000080EEA80A20EE090AC0EE290AC6ED010AE7
:10291000D3E700008C000020000000000000002031
:102920003333534000F07F454FF04070E1EE100A22
:102930007047000610160006101600000000000088
:10294000000001020304060708090000000001025C
:102950000304000074290008000000208C0000001F
:10296000C4010008002A00088C000020AC08000008
:10297000E00100080000000000000000010000006D
:1029800010000000000000000024F40000000240DD
:1029900040000000000C02408000000000040240E3
:1029A00001000000CC010020000000000000000039
:1029B0000000000000000000000000000000000017
:1029C00000000000B801002000000000000000002E
:1029D00000000000000000000000000010010020C6
:1029E00000000000000000000000000000000000E7
:1029F00000000000000000000000000000000000D7
:040000050800018965
:00000001FF
