:020000040800F2
:1000000060070020290200083F18000801170008B7
:100010003D18000849050008311B000800000000D9
:10002000000000000000000000000000431800086D
:10003000D505000800000000411800084518000818
:10004000430200084302000843020008430200087C
:10005000430200084302000843020008430200086C
:10006000430200084302000843020008430200085C
:10007000430200084302000843020008430200084C
:10008000430200084302000843020008430200083C
:10009000430200084302000843020008430200082C
:1000A000430200084302000843020008430200081C
:1000B000430200084302000843020008430200080C
:1000C00043020008430200084302000843020008FC
:1000D00043020008251B00084302000843020008F1
:1000E00043020008430200084302000843020008DC
:1000F00043020008430200084302000843020008CC
:1001000043020008430200084302000843020008BB
:100110004302000843020008ED18000843020008EB
:1001200043020008430200084D050008430200088E
:10013000430200084302000843020008430200088B
:10014000430200084302000843020008430200087B
:10015000430200084302000843020008430200086B
:10016000430200084302000843020008430200085B
:100170004302000843020008430200080000000098
:10018000430200084302000800F002F800F03CF8C7
:100190000AA090E8000C82448344AAF10107DA45E2
:1001A00001D100F031F8AFF2090EBAE80F0013F0F8
:1001B000010F18BFFB1A43F001031847E01A0000B3
:1001C000001B0000103A24BF78C878C1FAD8520743
:1001D00024BF30C830C144BF04680C6070470000C1
:1001E0000023002400250026103A28BF78C1FBD840
:1001F000520728BF30C148BF0B6070471FB501F0E0
:1002000037FD1FBD10B510BD00F0CFF81146FFF748
:10021000F5FF01F0F5FC00F0EDF803B4FFF7F2FF95
:1002200003BC00F0F5F80000094880470948004782
:10023000FEE7FEE7FEE7FEE7FEE7FEE7FEE7FEE796
:10024000FEE7FEE704480549054A064B70470000F3
:10025000DD18000889010008600100206007002007
:10026000600300206003002053EA020C00F0698064
:100270002DE9F04B4FF00006002B1FBFB3FA83F5BA
:1002800003FA05F424FA05F65E4012BF1643B2FAEB
:1002900082F502FA05F4C5F120051EBF22FA05FC1D
:1002A00044EA0C04203556EA044C4FEA144418BFC3
:1002B000641C4FF000084FF00009904271EB030CF2
:1002C00039D3002919BFB1FA81F701FA07F6B0FA5C
:1002D00080F700FA07F6C7F120071EBF20FA07FCD7
:1002E00046EA0C062037B6FBF4FCA7EB0507103FE7
:1002F00007F01F0BCBF120060CFA0BFB2CFA06F6CD
:1003000044BFB3460026202FA4BF5E464FF0000B2B
:100310005BEA060C08BF4FF0010B19EB0B09ABFBB6
:10032000027C48EB0608C01B06FB02CC0BFB03CC8F
:1003300071EB0C01C1E70B46024641464846BDE859
:10034000F08B13B54FF000004FF00001AFF30080C9
:10035000BDE81C4070474FF0000200B513469446BC
:100360009646203922BFA0E80C50A0E80C50B1F10D
:100370002001BFF4F7AF090728BFA0E80C5048BF21
:100380000CC05DF804EB890028BF40F8042B08BFBF
:10039000704748BF20F8022B11F0804F18BF00F8BB
:1003A000012B7047704770477047754600F02CF876
:1003B000AE4605006946534620F00700854618B052
:1003C00020B5FFF73FFFBDE820404FF000064FF09B
:1003D00000074FF000084FF0000B21F00701AC467A
:1003E000ACE8C009ACE8C009ACE8C009ACE8C00999
:1003F0008D46704710B50446AFF300802046BDE837
:100400001040FFF70ABF00000048704700010020BD
:1004100001491820ABBEFEE726000200704700002D
:1004200010B5032801D3012010BD154A02EBC0040A
:10043000A37933B139B101290CD0022914D002209B
:1004400010BD032010BD52F83000A188002200F03A
:100450002DFC13E052F83000A188012200F026FCA8
:100460000AE0E071002010BDA18852F8300000F0D1
:1004700015FCE079012801D00120F2E70020F0E727
:10048000100000202DE9F04186B00446032803D374
:10049000012006B0BDE8F08114216846FFF75BFF3C
:1004A000234E244A244956F834000025904207D1AF
:1004B0000A6842F004020A60096801F004011FE0C2
:1004C0001E4A904207D10A6842F002020A60096897
:1004D00001F0020114E01A4A904207D10A6842F082
:1004E00001020A60096801F0010109E0154A904221
:1004F00007D10A6842F008020A60096801F00801A1
:10050000059106EBC4074FF00108B9880091CDE9C9
:1005100001856946039500F0C9FAB98856F8340098
:10052000002200F0C3FB87F80680FD710020B0E7D1
:100530001000002000080240303802400004024051
:1005400000000240000C0240FEE70000014800F0FD
:1005500059B90000A000002001681823CAB2103A5F
:10056000B2FBF3F2054B6FF30901032A9B5CC365F1
:1005700000D9091D81650846704700007A1C0008F3
:1005800010B5014600208B698A6A4FF0C07453B1E0
:10059000B3F5005F15D072B1012A0CD0022A0AD03F
:1005A000032A09D104E01AB1012A06D0022A03D194
:1005B000C96AC90100D5012010BDC96AA142FAD09B
:1005C00010BD002AF7D0012AF2D0022AF3D0032A64
:1005D000F3D010BD704772B6FEE7704770B500B338
:1005E000F9B14379012B1ED0012646710223037114
:1005F00005682C6802F0100340F6FE729A4094439E
:10060000D1E900210A439A4022432A6001680A681E
:10061000C0249C40A2430A60067100214171084633
:1006200070BD012070BD022070BD70472DE9F04102
:10063000044600680668456BB1044FF0040710D506
:10064000A9040ED52771216941F001012161F90248
:1006500041632068016821F4805101602046FFF762
:10066000E4FFB00014D5A80012D52771206940F02E
:100670000200206121684FF0005048632068016843
:1006800021F0805101602046BDE8F041FFF7A5BF91
:10069000BDE8F08170B5040003D02079002510B1C9
:1006A00005E0012070BD6571204600F007F80220CA
:1006B0002071256101202071002070BD10B586B029
:1006C000044614216846FFF746FE15492068884213
:1006D00024D114480021026842F0005202600068F0
:1006E00000F0005005900F481038026842F00102F7
:1006F0000260006800F001000590102000900320C7
:10070000CDE901016946084800F0D0F90022114600
:10071000362000F03FFB362000F02EFB06B010BD67
:1007200000740040403802400000024018B5002428
:10073000009440B100680090104431B11430009032
:100740000360002018BD012018BD0830F7E72DE92F
:10075000F0410446876D00F0AFFA064694F8350084
:100760000025022806D08020606584F834500120DE
:10077000BDE8F0812068016821F016010160206861
:10078000416921F080014161206C08B9A06C20B161
:100790002068016821F0080101602068016821F0EB
:1007A000010101600CE000F087FA801B052807D9E1
:1007B00020206065032084F8350084F83450D7E7A2
:1007C00020680068C007EED194F85C103F20884094
:1007D000B860012084F8350084F834500020C7E761
:1007E00090F83510022903D080214165012070471F
:1007F000052180F835100068016821F001010160D1
:10080000002070472DE9F84304464FF00009CDF869
:10081000009063484FF41651A56D0068B0FBF1F7E6
:100820002E6894F85C10082000FA01F131420FD0D4
:1008300021680A6852070BD50A6822F004020A6090
:1008400094F85C108840A860606D40F0010060651D
:1008500094F85C104FF0010808FA01F0304208D01B
:1008600021684969090604D5A860606D40F002005E
:10087000606594F85C1004208840304208D02168FC
:100880000968890704D5A860606D40F004006065C0
:1008900094F85C1010208840304218D02168096814
:1008A000090714D5A86020680168490304D50068C9
:1008B000000308D5A16C07E00168C90503D40168ED
:1008C00021F008010160216C09B12046884794F8A5
:1008D0005C1020208840304231D021680968C90668
:1008E0002DD5A86094F8350005282068016806D049
:1008F000490347D5006800031DD4616C1CE021F05A
:10090000160101602068416921F080014161206C7D
:1009100008B9A06C20B12068016821F008010160CD
:1009200094F85C103F208840A86084F8358084F8F3
:100930003490216D1FE0E16B09B120468847606D5E
:1009400000282BD0606DC00714D0052084F8350036
:100950002068016821F0010101600098401C0090AE
:10096000B84203D820680068C007F6D184F8358003
:1009700084F83490E16C002910D001B02046BDE825
:10098000F04308470168C905D5D4016821F010017A
:10099000016084F8358084F83490CCE7BDE8F883B2
:1009A0000C0000202DE9F041044600F085F90646D0
:1009B0005CB1022084F83500002584F834502068AA
:1009C000016821F0010101600DE00120BDE8F08126
:1009D00000F072F9801B052805D9202060650320EE
:1009E00084F83500F2E720680068C007F0D122687B
:1009F000116820480140D4E901031843D4E90336C3
:100A00003343184363691843A3691843E3691843E0
:100A1000236A18430843616A042903D1D4E90B13FC
:100A200019430843106020684069666A20F0070196
:100A300030460E43012704280CD1A06A0643E06A21
:100A400040B12046FFF79CFD20B14020606584F84E
:100A50003570BAE7206846612046FFF77DFD94F8BF
:100A60005C203F2191408160656584F835700020ED
:100A7000ACE700003F8010F070B54FF0E02400229A
:100A800065690949A36909684843A1699942FCD08D
:100A900002D2A3EB010302E0A5EB010633441A44A2
:100AA0000B468242F1D370BD280000202DE9F84F9B
:100AB000DFF8BCA10022012503264FF00F090AF13F
:100AC000040BAAF1040E00BF0B6805FA02F42340E0
:100AD000A34270D10F7907F00307012F01D0022F35
:100AE00016D187684FEA420806FA08FC27EA0C0785
:100AF000D1F80CC00CFA08FC4CEA070CC0F808C08E
:100B00004768A7430C79C4F3001494403C43446005
:100B10000C79E443A4070AD0C4684FEA420C06FAF1
:100B20000CF7BC438F6807FA0CF72743C7600C79B2
:100B300004F00304022C12D1D40800EB840CDCF87E
:100B400020405707FF0E09FA07F824EA0804D1F8F5
:100B5000108008FA07F848EA0408CCF820800468F6
:100B60004FEA420C06FA0CF7BC430F7907F0030773
:100B700007FA0CF7274307604C6814F4403F70D025
:100B80003C4C276847F480472760246822F003071D
:100B900004F480440094384C07EB040CDCF808485B
:100BA00097074FEA177809FA08F7BC43334FB84262
:100BB00002D1002724E054E0314FB84201D101278F
:100BC0001EE0304FB84201D1022719E02E4FB84243
:100BD00001D1032714E02D4FB84201D104270FE0C3
:100BE0002B4FB84201D105270AE02A4FB84201D164
:100BF000062705E0284FB84201D1072700E0082763
:100C000007FA08F72743CCF80878DAF80040574687
:100C1000D1F804C09C435FEACC2C00D51C433C6057
:100C2000DBF800405F46D1F804C09C435FEA8C2C9F
:100C300000D51C433C60DEF800407746D1F804C084
:100C40009C435FEA8C3C00D51C433C60084F083F46
:100C50003C68D1F804C09C435FEACC3C00D51C43FF
:100C60003C60521C102AFFF42FAFBDE8F88F000043
:100C7000083C01404438024000300140000002407E
:100C80000004024000080240000C02400010024034
:100C90000014024000180240001C0240426921EA90
:100CA00002030A4043EA0241816170470AB181614F
:100CB00070470904FBE700000148806870470000A6
:100CC000000000200248816802781144816070476A
:100CD000000000200B4810B5016841F4007101606C
:100CE000016841F480610160016841F48071016034
:100CF000032000F06FF80F2000F006F800F024F851
:100D0000002010BD003C024070B50D4D04464FF46C
:100D10007A712878B1FBF0F00A490968B1FBF0F06C
:100D200000F00AFB48B9102C07D200222146501EC1
:100D300000F030F800206C6070BD012070BD000034
:100D4000000000200C0000200A4808B5016841F4AA
:100D500080410160006800F4804000900548001F59
:100D6000016841F080510160006800F080500090FF
:100D700008BD000044380240002809DB00F01F02D3
:100D8000012191404009800000F1E020C0F80011ED
:100D900070470000F0B40E4B1B680C46C3F30223EF
:100DA000C3F10705042D00D90425191D072901D217
:100DB000002300E0DB1E012606FA05F1491E214052
:100DC00099409E40761E16403143F0BC00F0B1BE03
:100DD0000CED00E0064900F0070208684FF6FF033B
:100DE000184040EA0220034A1043086070470000A0
:100DF0000CED00E00000FA052DE9F0470E46050075
:100E000065D0DFF81481D8F80000F7B200F00700D1
:100E1000B04207D288F80070D8F8000000F0070050
:100E2000B04254D128683D4C810712D5400703D504
:100E3000206840F4E05020602878000703D520683F
:100E400040F4604020602068A96820F0F00008436A
:100E500020602878C0072DD03049686808390128FB
:100E600012D0022813D0032811D00968890700295D
:100E70002DDA216821F0030101432160FFF71CFFF7
:100E8000814641F2883A0EE009688903EFE7096874
:100E90008901ECE7FFF710FFA0EB0901514502D9EA
:100EA0000320BDE8F0872068696800F00C00B0EB13
:100EB000810FEFD1D8F80010404601F00701B14290
:100EC00007D90770006800F00700B04201D0012088
:100ED000E7E72878400705D52068E96820F4E05066
:100EE000084320602878000706D52068296920F487
:100EF000604040EAC100206000F038F82168084AEC
:100F0000C1F30311515CC8400649086006480068F7
:100F1000FFF7FAFE0020C4E7003C02400838024018
:100F2000821C00080C000020040000200448054931
:100F300000680968044AC1F38221515CC8407047C7
:100F40000C00002008380240921C000804480549A3
:100F500000680968044AC1F34231515CC8407047D7
:100F60000C00002008380240921C0008154810B5FB
:100F7000006810F00C02144813D04110042A0FD05E
:100F8000082A0ED10F4C241F2268236802F03F026A
:100F90005B0207D52068C0F38810A0FB010106E0C2
:100FA000084610BD2168C1F38811A1FB0001002390
:100FB000FFF75AF92168C1F30141491C4900B0FB10
:100FC000F1F010BD083802400024F4002DE9F84F7C
:100FD00004006ED02078DFF84C93C007A9F1040517
:100FE0004AD009F104000168C1F38101012908D048
:100FF0000068C0F3810002280AD1D9F8000040023D
:1010000006D52868800337D560680028E1D033E032
:101010006068B0F5803F10D0B0F5A02F286810D0E0
:1010200020F480302860286820F4802028606068E0
:10103000A8B1FFF741FE06460DE0286840F4803075
:10104000F4E740F480202860F7E700BFFFF734FEA4
:10105000801B642873D828688003F7D50CE0FFF75D
:101060002BFE064605E000BFFFF726FE801B642826
:10107000F0D828688003F7D42078DFF8AC828007A6
:101080004FF0000A3ED5A748001D016811F00C0F73
:1010900008D00068C0F3810002280BD1D9F8000005
:1010A000400207D42868800716D5E068012800D1DF
:1010B00012E033E1E068B8B10120C8F80000FFF7A2
:1010C000FBFD064605E000BFFFF7F6FD801B02288A
:1010D000C0D828688007F7D52868216920F0F80073
:1010E00040EAC10028600DE0C8F800A0FFF7E4FD69
:1010F000064604E0FFF7E0FD801B02281FD82868A1
:101100008007F7D42078000722D5864F8748616989
:10111000703771B101210160FFF7CEFD064604E092
:10112000FFF7CAFD801B022809D838688007F7D569
:101130000EE0C0F800A0FFF7BFFD064605E082E024
:10114000FFF7BAFD801B02287DD838688007F7D4E6
:101150002078400768D5DFF8CCB100270BF13C0BB5
:10116000DBF80000C0000BD4DBF8001041F0805128
:10117000CBF80010DBF80000012700F08050009051
:101180006B4E3068C00510D4306840F48070306019
:10119000FFF792FD009005E0FFF78EFD0099401AE1
:1011A000022850D83068C005F6D55E4EA0686C366F
:1011B00001280FD00528306810D020F001003060E1
:1011C000306820F004003060A068B8B1FFF774FD0B
:1011D00000900FE0306840F00100F4E740F00400B8
:1011E0003060F7E7FFF768FD0099411A41F2883057
:1011F000814266D830688007F4D50EE0FFF75CFDC9
:10120000009007E0FFF758FD0099411A41F288303D
:10121000814256D830688007F4D42FB1DBF8001033
:1012200021F08051CBF80010A069C8B33D49091DD9
:101230000968C1F3810102294AD00228504607D02B
:10124000C8F8600000E03CE0FFF736FD04463BE0F4
:101250004746C8F86000FFF72FFD064605E000BFCF
:10126000FFF72AFD801B02282BD828688001F7D4BD
:10127000D4E907010843A16A2E4A490802EB01415B
:10128000626A41EA8211084394F82C1040EA016135
:10129000C9F8001001203866FFF70EFD044606E08D
:1012A0003EE000BFFFF708FD001B022809D82868B0
:1012B0008001F7D534E000BFFFF7FEFC001B0228D9
:1012C00002D90320BDE8F88F28688001F4D427E014
:1012D0000128F7D0D9F80000E26900F480019142BA
:1012E0001CD1226A00F03F01914217D147F6C0712C
:1012F000626A0140B1EB821F10D1A26A4FF0FF3346
:1013000000F4403103EB5202B1EB024F06D194F8E6
:101310002C1000F07060B0EB016F01D00120D1E71C
:101320000020CFE70438024000004742800E4742C9
:10133000007000400000FFFF10B5401EB0F1807F3C
:1013400001D3012010BD4FF0E02460610F21601730
:1013500000F0EFFB0020A06107202061002010BDFD
:1013600070477047F8B5016804460868CA684B6959
:1013700010F00F0F4FF0000559D003F0010602F4F2
:101380009077374365D0C10705D0D10503D5616C8F
:1013900041F001016164410705D5D90703D0616CB3
:1013A00041F002016164810705D5D90703D0616C62
:1013B00041F004016164010707D502F020013143C7
:1013C00003D0616C41F008016164616C00293AD07E
:1013D000800604D5900602D5204600F0BBFA2068AE
:1013E0004069616CC0F38010090700D460B32046E7
:1013F00000F089FA20684069400621D52068143041
:1014000050E8001F21F0400140E80012002AF5D109
:10141000E06BA8B172490165E06BFFF7E1F90028C4
:1014200011D0E06B016D01B0BDE8F04008478306C4
:101430000FD593060DD52046BDE8F84000F08ABAD6
:101440002046FFF78EFFF8BD2046FFF78AFF656450
:10145000F8BD266B2023012E7ED1C6067CD5D6068C
:101460007AD508684868009048694FF0020640063F
:101470004DD5E26B106840684FF480770004000C93
:101480003AD0A18D814237D9E085D069B8422DD0BC
:1014900020680C3050E8001F21F4807140E80012F1
:1014A000002AF5D12068143050E8001F21F0010116
:1014B00040E80012002AF5D12068143050E8001FDF
:1014C00021F0400140E80012002AF5D184F84230B2
:1014D000256320680C3050E8001F21F0100140E81F
:1014E0000012002AF5D1E06BFFF731F96663A08D99
:1014F000E18D401A81B206E0A18D8142A8D1D06968
:10150000B842A5D166632046FFF72AFFF8BDA08D3B
:10151000E18D401A81B2E08D0028F7D00029F5D086
:1015200020680C3050E8002F22F4907240E8002729
:10153000002FF5D12068143050E8002F22F001026E
:1015400040E80027002FF5D184F842302563206859
:101550000C3050E8002F00E006E022F0100240E8D6
:101560000023002BF3D1CDE705062BD5150629D591
:1015700094F841002128C9D1A068B0F5805F01D15D
:101580002069B0B1206A411C21622168007848605E
:10159000E08C401E0004000CE084B7D12068C168D4
:1015A00021F08001C1602068C16841F04001C16044
:1015B000F8BD206A0088C0F308004860206A801CDB
:1015C0002062E5E74006F3D55006F1D5CA6820460B
:1015D00022F04002CA6084F8413000F090F8F8BD73
:1015E000F918000870B5040004D094F841000025F3
:1015F00010B106E0012070BD84F84050204600F094
:1016000023F8242084F841002068C16821F40051A7
:10161000C160204600F000FA2068016921F4904181
:1016200001612068416921F02A0141612068C16897
:1016300041F40051C1606564202084F8410084F8C1
:1016400042006563002070BD70B586B00646142167
:101650006846FEF780FE24493068884241D123481D
:101660000025016841F010010160006800F01000E1
:1016700005901E481438016841F0010101600068BE
:10168000694600F0010005904FF4C0600090022010
:10169000CDE9010503200390072004901448FFF7CB
:1016A00005FA154C134820604FF00060C4E90105AD
:1016B0004014C4E9035080106561C4E906502562F6
:1016C00020466562FFF76EF908B1FEF784FFF46308
:1016D000002211462520A663FFF75CFB2520FFF7BB
:1016E0004BFB06B070BD00000010014044380240C2
:1016F0000000024040640240A00000207047704794
:10170000FEE770B50D46040012D0606800280FD0C7
:10171000A168691A81420BD320780221FEF780FE6E
:101720006078012801D0012000E000206070A560F1
:1017300070BD70B504000D460AD00846FEF7A2FE43
:10174000002804D12570002161706160A16070BD26
:10175000012070BD002802D04160002181607047E7
:101760001CB500240C4900940A48019408600846FE
:10177000FEF790FF08B1FEF72EFF0220CDE90040F2
:10178000002269460448FEF729FF002801D0FEF731
:1017900022FF1CBD0074004044000020094808B529
:1017A000016841F4800101600068002200F48000BB
:1017B000009011463A20FFF7EDFABDE808403A20C4
:1017C000FFF7DABA303802400D4808B5016841F039
:1017D00004010160016801F004010091016841F019
:1017E00080010160016801F080010091016841F011
:1017F00001010160006800F00100009008BD0000D8
:10180000303802400C4810B50A4901604FF4E1310C
:101810004160002181600C22C160C0E90412816135
:10182000C161FFF7DFFE002803D0BDE81040FEF7DE
:10183000D2BE10BD0010014058000020FEE7FEE7B8
:1018400070477047FFF73EBA30B593B03021684615
:10185000FEF781FD14210CA8FEF77DFD1D48002533
:10186000016841F080510160006800F080501190E3
:101870001948016841F4804101600068022400F4C5
:101880008040119001200090000401908001CDE97A
:10189000064008AA0420A82182E813000B9068469D
:1018A000FFF794FB08B172B6FEE70CA90F2081E8A0
:1018B00031004FF4A0500F904FF48050109005214C
:1018C0000CA8FFF799FA002801D072B6FEE713B012
:1018D00030BD0000403802400070004002480168FE
:1018E00041F470010160704788ED00E00148FEF7A7
:1018F0009DBE00004400002010B5806B0021C18512
:10190000FFF72FFD10BD01680C3151E8002F22F4C4
:10191000907241E80023002BF5D10168143151E8A1
:10192000002F22F0010241E80023002BF5D1016BCA
:10193000012909D101680C3151E8002F22F0100271
:1019400041E80023002BF5D1202180F8421000212E
:101950000163704708B590F84210222901D0022097
:1019600008BD82684FF480539A4201D1016921B1C8
:10197000816A9A421BD04AB10AE00268816A5268C1
:10198000C2F308020A80816A891C08E0026972B108
:101990000268526802F07F020A70816A491C816203
:1019A000C18D491E0904090CC18503D01BE00268E2
:1019B0005268F1E70168CA6822F02002CA60016833
:1019C000CA6822F48072CA6001684A6922F0010282
:1019D0004A61202180F8421000214163026B012AF4
:1019E00003D0FFF78BFE002008BD016301680C31B6
:1019F00051E8002F22F0100241E80023002BF5D11E
:101A000001680A68D20602D50A6849680091818D8A
:101A1000FFF7A6FCE7E7000070B50446006801691F
:101A2000E26821F44051114301612169A068E26933
:101A300008436169114308432168CA6849F20C638D
:101A40009A430243CA6020684169A26921F4407147
:101A50001143416131492068884202D030498842AF
:101A600002D1FFF773FA01E0FFF760FAE2690023A1
:101A7000192164253226B2F5004F626828D0A0FBF8
:101A80000101930F9200FEF7EFFB0146B0FBF5F06A
:101A90006FF01802504301EB800006EB0010B0FB22
:101AA000F5F000F0F002B1FBF5F002EB0012B1FB33
:101AB000F5F06FF01803584301EB800006EB0010BF
:101AC000B0FBF5F000F00F0021681044886070BD95
:101AD000A0FB010192185B41FEF7C6FB0146B0FB7B
:101AE000F5F00201B1FBF5F06FF01803584301EB7C
:101AF000800006EBC000B0FBF5F000F0F80002EB50
:101B00004002B1FBF5F0584301EB800006EBC0004A
:101B1000B0FBF5F000F00700D6E700000010014030
:101B2000001401400148FFF71DBC000058000020D0
:101B3000FEE70907090E002804DB00F1E02080F829
:101B40000014704700F00F0000F1E02080F8141D31
:101B5000704700002DE9F041884641001446891C79
:101B60002DED028B1F46A14241D36108401CB0FB02
:101B7000F1F000EE100A0026F8EE408A35E000236E
:101B80009FED1D8A1A4619461C48FEF7CFFD002519
:101B900010E000BF38EE288A002211461748BCEE3C
:101BA000C80A10EE103AFEF7C1FD4046FEF764FF8A
:101BB0006D1CADB2B5EB540FECD3002510E000BFA7
:101BC00038EE688A002211460C48BCEEC80A10EEB6
:101BD000103AFEF7ABFD4046FEF74EFF6D1CADB26E
:101BE000B5EB540FECD3761CB6B2BE42C7D3BDECF6
:101BF000028BBDE8F08100000000000044000020DE
:101C0000FFF768F8FFF720FEFFF7DEFDFFF7C6FDE0
:101C1000FFF7F8FDFFF7A4FD00211448FFF789FD49
:101C200001211248FFF785FD4FF4FA7529460F4848
:101C3000FFF790FD0D4829460C30FFF78BFD4FF460
:101C4000805600BFFFF738F8044601460748FFF703
:101C500058FD064821460C30FFF753FD642314223B
:101C600029463046FFF776FFECE700002C00002005
:101C70004FF04070E1EE100A7047000610160006A3
:101C80001016000000000000000001020304060717
:101C9000080900000000010203040000BC1C000849
:101CA000000000202C000000C4010008E81C00080F
:101CB0002C00002034070000E001000801000000B3
:101CC00010000000000000000024F40000000240AA
:101CD00040000000000C02408000000000040240B0
:081CE0000100000000000000FB
:040000050800018965
:00000001FF
